{
  "_format": "hh-sol-artifact-1",
  "contractName": "Voting",
  "sourceName": "contracts/Voting.sol",
  "abi": [
    {
      "inputs": [
        {
          "internalType": "uint256",
          "name": "_minimumVotingPower",
          "type": "uint256"
        }
      ],
      "stateMutability": "nonpayable",
      "type": "constructor"
    },
    {
      "inputs": [
        {
          "internalType": "address",
          "name": "voter",
          "type": "address"
        }
      ],
      "name": "AlreadyVoted",
      "type": "error"
    },
    {
      "inputs": [],
      "name": "EmergencyStopActive",
      "type": "error"
    },
    {
      "inputs": [
        {
          "internalType": "address",
          "name": "voter",
          "type": "address"
        },
        {
          "internalType": "uint256",
          "name": "power",
          "type": "uint256"
        },
        {
          "internalType": "uint256",
          "name": "required",
          "type": "uint256"
        }
      ],
      "name": "InsufficientVotingPower",
      "type": "error"
    },
    {
      "inputs": [
        {
          "internalType": "uint256",
          "name": "candidateId",
          "type": "uint256"
        }
      ],
      "name": "InvalidCandidateId",
      "type": "error"
    },
    {
      "inputs": [],
      "name": "InvalidVotingDuration",
      "type": "error"
    },
    {
      "inputs": [
        {
          "internalType": "address",
          "name": "voter",
          "type": "address"
        }
      ],
      "name": "NoVoteToRevoke",
      "type": "error"
    },
    {
      "inputs": [],
      "name": "NotEnoughCandidates",
      "type": "error"
    },
    {
      "inputs": [],
      "name": "NotEnoughTimeElapsed",
      "type": "error"
    },
    {
      "inputs": [
        {
          "internalType": "address",
          "name": "caller",
          "type": "address"
        }
      ],
      "name": "OnlyAdmin",
      "type": "error"
    },
    {
      "inputs": [
        {
          "internalType": "address",
          "name": "voter",
          "type": "address"
        }
      ],
      "name": "VoterIsBlacklisted",
      "type": "error"
    },
    {
      "inputs": [],
      "name": "VotingAlreadyStarted",
      "type": "error"
    },
    {
      "inputs": [],
      "name": "VotingEnded",
      "type": "error"
    },
    {
      "inputs": [],
      "name": "VotingNotStarted",
      "type": "error"
    },
    {
      "anonymous": false,
      "inputs": [
        {
          "indexed": true,
          "internalType": "uint256",
          "name": "candidateId",
          "type": "uint256"
        },
        {
          "indexed": false,
          "internalType": "string",
          "name": "name",
          "type": "string"
        },
        {
          "indexed": true,
          "internalType": "address",
          "name": "addedBy",
          "type": "address"
        }
      ],
      "name": "CandidateAdded",
      "type": "event"
    },
    {
      "anonymous": false,
      "inputs": [
        {
          "indexed": false,
          "internalType": "bool",
          "name": "stopped",
          "type": "bool"
        }
      ],
      "name": "EmergencyStopToggled",
      "type": "event"
    },
    {
      "anonymous": false,
      "inputs": [
        {
          "indexed": true,
          "internalType": "address",
          "name": "voter",
          "type": "address"
        },
        {
          "indexed": true,
          "internalType": "uint256",
          "name": "candidateId",
          "type": "uint256"
        },
        {
          "indexed": false,
          "internalType": "uint256",
          "name": "votingPower",
          "type": "uint256"
        }
      ],
      "name": "VoteCasted",
      "type": "event"
    },
    {
      "anonymous": false,
      "inputs": [
        {
          "indexed": true,
          "internalType": "address",
          "name": "voter",
          "type": "address"
        },
        {
          "indexed": true,
          "internalType": "uint256",
          "name": "candidateId",
          "type": "uint256"
        }
      ],
      "name": "VoteRevoked",
      "type": "event"
    },
    {
      "anonymous": false,
      "inputs": [
        {
          "indexed": true,
          "internalType": "address",
          "name": "voter",
          "type": "address"
        },
        {
          "indexed": false,
          "internalType": "bool",
          "name": "blacklisted",
          "type": "bool"
        }
      ],
      "name": "VoterBlacklistUpdated",
      "type": "event"
    },
    {
      "anonymous": false,
      "inputs": [
        {
          "indexed": true,
          "internalType": "address",
          "name": "voter",
          "type": "address"
        },
        {
          "indexed": false,
          "internalType": "uint256",
          "name": "power",
          "type": "uint256"
        }
      ],
      "name": "VotingPowerAssigned",
      "type": "event"
    },
    {
      "anonymous": false,
      "inputs": [
        {
          "indexed": false,
          "internalType": "uint256",
          "name": "endTime",
          "type": "uint256"
        }
      ],
      "name": "VotingStarted",
      "type": "event"
    },
    {
      "inputs": [
        {
          "internalType": "string",
          "name": "_name",
          "type": "string"
        },
        {
          "internalType": "string",
          "name": "_description",
          "type": "string"
        }
      ],
      "name": "addCandidate",
      "outputs": [],
      "stateMutability": "nonpayable",
      "type": "function"
    },
    {
      "inputs": [],
      "name": "admin",
      "outputs": [
        {
          "internalType": "address",
          "name": "",
          "type": "address"
        }
      ],
      "stateMutability": "view",
      "type": "function"
    },
    {
      "inputs": [
        {
          "internalType": "address",
          "name": "_voter",
          "type": "address"
        },
        {
          "internalType": "uint256",
          "name": "_power",
          "type": "uint256"
        }
      ],
      "name": "assignVotingPower",
      "outputs": [],
      "stateMutability": "nonpayable",
      "type": "function"
    },
    {
      "inputs": [
        {
          "internalType": "address",
          "name": "",
          "type": "address"
        }
      ],
      "name": "blacklistedVoters",
      "outputs": [
        {
          "internalType": "bool",
          "name": "",
          "type": "bool"
        }
      ],
      "stateMutability": "view",
      "type": "function"
    },
    {
      "inputs": [
        {
          "internalType": "uint256",
          "name": "",
          "type": "uint256"
        }
      ],
      "name": "candidates",
      "outputs": [
        {
          "internalType": "uint256",
          "name": "id",
          "type": "uint256"
        },
        {
          "internalType": "string",
          "name": "name",
          "type": "string"
        },
        {
          "internalType": "string",
          "name": "description",
          "type": "string"
        },
        {
          "internalType": "uint256",
          "name": "voteCount",
          "type": "uint256"
        }
      ],
      "stateMutability": "view",
      "type": "function"
    },
    {
      "inputs": [],
      "name": "emergencyStop",
      "outputs": [
        {
          "internalType": "bool",
          "name": "",
          "type": "bool"
        }
      ],
      "stateMutability": "view",
      "type": "function"
    },
    {
      "inputs": [
        {
          "internalType": "uint256",
          "name": "_candidateId",
          "type": "uint256"
        }
      ],
      "name": "getCandidate",
      "outputs": [
        {
          "internalType": "uint256",
          "name": "id",
          "type": "uint256"
        },
        {
          "internalType": "string",
          "name": "name",
          "type": "string"
        },
        {
          "internalType": "string",
          "name": "description",
          "type": "string"
        },
        {
          "internalType": "uint256",
          "name": "voteCount",
          "type": "uint256"
        }
      ],
      "stateMutability": "view",
      "type": "function"
    },
    {
      "inputs": [],
      "name": "getCandidatesCount",
      "outputs": [
        {
          "internalType": "uint256",
          "name": "",
          "type": "uint256"
        }
      ],
      "stateMutability": "view",
      "type": "function"
    },
    {
      "inputs": [],
      "name": "getRemainingTime",
      "outputs": [
        {
          "internalType": "uint256",
          "name": "",
          "type": "uint256"
        }
      ],
      "stateMutability": "view",
      "type": "function"
    },
    {
      "inputs": [
        {
          "internalType": "address",
          "name": "_voter",
          "type": "address"
        }
      ],
      "name": "getVoterInfo",
      "outputs": [
        {
          "internalType": "bool",
          "name": "hasVoted",
          "type": "bool"
        },
        {
          "internalType": "uint256",
          "name": "votedCandidateId",
          "type": "uint256"
        },
        {
          "internalType": "uint256",
          "name": "votingPower",
          "type": "uint256"
        },
        {
          "internalType": "bool",
          "name": "isBlacklisted",
          "type": "bool"
        }
      ],
      "stateMutability": "view",
      "type": "function"
    },
    {
      "inputs": [],
      "name": "getVotingResults",
      "outputs": [
        {
          "internalType": "uint256",
          "name": "totalVotesCast",
          "type": "uint256"
        },
        {
          "internalType": "uint256[]",
          "name": "voteCounts",
          "type": "uint256[]"
        }
      ],
      "stateMutability": "view",
      "type": "function"
    },
    {
      "inputs": [],
      "name": "minimumVotingPower",
      "outputs": [
        {
          "internalType": "uint256",
          "name": "",
          "type": "uint256"
        }
      ],
      "stateMutability": "view",
      "type": "function"
    },
    {
      "inputs": [],
      "name": "revokeVote",
      "outputs": [],
      "stateMutability": "nonpayable",
      "type": "function"
    },
    {
      "inputs": [
        {
          "internalType": "address",
          "name": "_voter",
          "type": "address"
        },
        {
          "internalType": "bool",
          "name": "_blacklisted",
          "type": "bool"
        }
      ],
      "name": "setVoterBlacklist",
      "outputs": [],
      "stateMutability": "nonpayable",
      "type": "function"
    },
    {
      "inputs": [
        {
          "internalType": "uint256",
          "name": "_durationInMinutes",
          "type": "uint256"
        }
      ],
      "name": "startVoting",
      "outputs": [],
      "stateMutability": "nonpayable",
      "type": "function"
    },
    {
      "inputs": [],
      "name": "toggleEmergencyStop",
      "outputs": [],
      "stateMutability": "nonpayable",
      "type": "function"
    },
    {
      "inputs": [],
      "name": "totalVotes",
      "outputs": [
        {
          "internalType": "uint256",
          "name": "",
          "type": "uint256"
        }
      ],
      "stateMutability": "view",
      "type": "function"
    },
    {
      "inputs": [
        {
          "internalType": "uint256",
          "name": "_candidateId",
          "type": "uint256"
        }
      ],
      "name": "vote",
      "outputs": [],
      "stateMutability": "nonpayable",
      "type": "function"
    },
    {
      "inputs": [
        {
          "internalType": "address",
          "name": "",
          "type": "address"
        }
      ],
      "name": "voters",
      "outputs": [
        {
          "internalType": "bool",
          "name": "hasVoted",
          "type": "bool"
        },
        {
          "internalType": "uint256",
          "name": "votedCandidateId",
          "type": "uint256"
        },
        {
          "internalType": "uint256",
          "name": "votingPower",
          "type": "uint256"
        }
      ],
      "stateMutability": "view",
      "type": "function"
    },
    {
      "inputs": [],
      "name": "votingEnd",
      "outputs": [
        {
          "internalType": "uint256",
          "name": "",
          "type": "uint256"
        }
      ],
      "stateMutability": "view",
      "type": "function"
    },
    {
      "inputs": [],
      "name": "votingStarted",
      "outputs": [
        {
          "internalType": "bool",
          "name": "",
          "type": "bool"
        }
      ],
      "stateMutability": "view",
      "type": "function"
    }
  ],
  "bytecode": "0x6080604052348015600f57600080fd5b50604051611426380380611426833981016040819052602c91607e565b80600003604c57604051632be0023160e11b815260040160405180910390fd5b600080546001600160a01b031916331790556005805460ff199081169091556006919091556008805490911690556096565b600060208284031215608f57600080fd5b5051919050565b611381806100a56000396000f3fe608060405234801561001057600080fd5b50600436106101375760003560e01c806383d948b7116100b8578063a3ec138d1161007c578063a3ec138d146102d6578063bb9aa28f14610327578063c3a74f121461032f578063da650ec614610342578063efb98bcf14610358578063f851a4401461036057600080fd5b806383d948b7146101ff57806385a386351461020c57806394680078146102155780639d1efd15146102385780639ed1f2551461024b57600080fd5b806335b8e820116100ff57806335b8e820146101ac5780633d2f5bda146101bf57806343c14b22146101d25780634b7aac94146101da57806363a599a4146101e257600080fd5b80630121b93f1461013c5780630d15fd7714610151578063120ea2021461016d57806326541b56146101765780633477ee2e14610189575b600080fd5b61014f61014a366004610ee4565b61038b565b005b61015a60075481565b6040519081526020015b60405180910390f35b61015a60065481565b61014f610184366004610fa2565b6105bb565b61019c610197366004610ee4565b610706565b6040516101649493929190611051565b61019c6101ba366004610ee4565b610852565b61014f6101cd366004610ee4565b610a0a565b61014f610afd565b61014f610c38565b6008546101ef9060ff1681565b6040519015158152602001610164565b6005546101ef9060ff1681565b61015a60045481565b6101ef6102233660046110aa565b60026020526000908152604090205460ff1681565b61014f6102463660046110cc565b610cb2565b6102b26102593660046110aa565b6001600160a01b031660008181526001602081815260408084208151606081018352815460ff90811615158083529583015482860181905260029384015492850183905297875291909352932054919490929190911690565b60408051941515855260208501939093529183015215156060820152608001610164565b61030a6102e43660046110aa565b600160208190526000918252604090912080549181015460029091015460ff9092169183565b604080519315158452602084019290925290820152606001610164565b60035461015a565b61014f61033d366004611108565b610d3f565b61034a610dfc565b604051610164929190611132565b61015a610eaf565b600054610373906001600160a01b031681565b6040516001600160a01b039091168152602001610164565b60055460ff166103ae57604051633fd0090160e11b815260040160405180910390fd5b60045442106103d057604051637a19ed0560e01b815260040160405180910390fd5b60085460ff16156103f457604051630eff07c160e21b815260040160405180910390fd5b3360009081526002602052604090205460ff161561042c57604051633881545360e01b81523360048201526024015b60405180910390fd5b3360009081526001602052604090205460ff161561045f57604051633512759d60e21b8152336004820152602401610423565b6003548110610484576040516306b5f7ef60e21b815260048101829052602401610423565b6006543360009081526001602052604090206002015410156104de5733600081815260016020526040908190206002015460065491516309e915af60e01b8152600481019390935260248301526044820152606401610423565b336000908152600160208190526040909120805460ff19168217815590810182905560020154600380548390811061051857610518611181565b9060005260206000209060040201600301600082825461053891906111ad565b90915550503360009081526001602052604081206002015460078054919290916105639084906111ad565b909155505033600081815260016020526040908190206002015490518392917fcb87df07b1c304492bd875a5c8b98672eca500939412809ea229afef1d745188916105b091815260200190565b60405180910390a350565b6000546001600160a01b031633146105e8576040516302e286cf60e01b8152336004820152602401610423565b60055460ff161561060c576040516301da8d1f60e51b815260040160405180910390fd5b600380546040805160808101825282815260208101868152918101859052600060608201819052600184018555939093528251600483027fc2575a0e9e593c00f959f8c92f12db2869c3395a3b0502d05e2516446f71f85b8101918255915192939290917fc2575a0e9e593c00f959f8c92f12db2869c3395a3b0502d05e2516446f71f85c019061069d908261124f565b50604082015160028201906106b2908261124f565b50606082015181600301555050336001600160a01b0316817ff119bb07245e20116d1c56128be14390dbc24c94fc13ee0a9bc023da18bab01d856040516106f9919061130e565b60405180910390a3505050565b6003818154811061071657600080fd5b6000918252602090912060049091020180546001820180549193509061073b906111c6565b80601f0160208091040260200160405190810160405280929190818152602001828054610767906111c6565b80156107b45780601f10610789576101008083540402835291602001916107b4565b820191906000526020600020905b81548152906001019060200180831161079757829003601f168201915b5050505050908060020180546107c9906111c6565b80601f01602080910402602001604051908101604052809291908181526020018280546107f5906111c6565b80156108425780601f1061081757610100808354040283529160200191610842565b820191906000526020600020905b81548152906001019060200180831161082557829003601f168201915b5050505050908060030154905084565b600060608060006003805490508510610881576040516306b5f7ef60e21b815260048101869052602401610423565b60006003868154811061089657610896611181565b9060005260206000209060040201604051806080016040529081600082015481526020016001820180546108c9906111c6565b80601f01602080910402602001604051908101604052809291908181526020018280546108f5906111c6565b80156109425780601f1061091757610100808354040283529160200191610942565b820191906000526020600020905b81548152906001019060200180831161092557829003601f168201915b5050505050815260200160028201805461095b906111c6565b80601f0160208091040260200160405190810160405280929190818152602001828054610987906111c6565b80156109d45780601f106109a9576101008083540402835291602001916109d4565b820191906000526020600020905b8154815290600101906020018083116109b757829003601f168201915b50505091835250506003919091015460209182015281519082015160408301516060909301519199909850919650945092505050565b6000546001600160a01b03163314610a37576040516302e286cf60e01b8152336004820152602401610423565b60055460ff1615610a5b576040516301da8d1f60e51b815260040160405180910390fd5b60035460021115610a7f57604051631217258560e01b815260040160405180910390fd5b80600003610aa057604051632be0023160e11b815260040160405180910390fd5b6005805460ff19166001179055610ab881603c611321565b610ac290426111ad565b60048190556040519081527fcf33babc496bb6dc2942b39cb7b75766bbbadf7da50d176ff8c513e9911402399060200160405180910390a150565b60055460ff16610b2057604051633fd0090160e11b815260040160405180910390fd5b6004544210610b4257604051637a19ed0560e01b815260040160405180910390fd5b60085460ff1615610b6657604051630eff07c160e21b815260040160405180910390fd5b336000908152600160205260409020805460ff16610b9957604051639d128f0360e01b8152336004820152602401610423565b600181015460028201546003805483908110610bb757610bb7611181565b90600052602060002090600402016003016000828254610bd79190611338565b9091555050600282015460078054600090610bf3908490611338565b9091555050815460ff19168255600060018301819055604051829133917fa7fda17277315b0673dca85a2745e7e213c2620017c8ad679e07262c1376ae309190a35050565b6000546001600160a01b03163314610c65576040516302e286cf60e01b8152336004820152602401610423565b6008805460ff8082161560ff1990921682179092556040519116151581527f05b88d23d9a60b7924fccc370e1e0c1ccf49989e3b2968cafaf7db7fc13bd13f9060200160405180910390a1565b6000546001600160a01b03163314610cdf576040516302e286cf60e01b8152336004820152602401610423565b6001600160a01b038216600081815260026020908152604091829020805460ff191685151590811790915591519182527f219d78dc0bfe15bade0b7d1f1115f1579185d6f2b85e8d05ee0e2e19bf80e01791015b60405180910390a25050565b6000546001600160a01b03163314610d6c576040516302e286cf60e01b8152336004820152602401610423565b600654811015610dac576006546040516309e915af60e01b81526001600160a01b0384166004820152602481018390526044810191909152606401610423565b6001600160a01b03821660008181526001602052604090819020600201839055517f9f8423a58aeaafe36a6e48f9d7da061cfb6597f98ea34a45c53818a0031e5bbb90610d339084815260200190565b60006060600060038054905067ffffffffffffffff811115610e2057610e20610efd565b604051908082528060200260200182016040528015610e49578160200160208202803683370190505b50905060005b600354811015610ea35760038181548110610e6c57610e6c611181565b906000526020600020906004020160030154828281518110610e9057610e90611181565b6020908102919091010152600101610e4f565b50600754939092509050565b60055460009060ff16610ec25750600090565b6004544210610ed15750600090565b42600454610edf9190611338565b905090565b600060208284031215610ef657600080fd5b5035919050565b634e487b7160e01b600052604160045260246000fd5b600082601f830112610f2457600080fd5b813567ffffffffffffffff811115610f3e57610f3e610efd565b604051601f8201601f19908116603f0116810167ffffffffffffffff81118282101715610f6d57610f6d610efd565b604052818152838201602001851015610f8557600080fd5b816020850160208301376000918101602001919091529392505050565b60008060408385031215610fb557600080fd5b823567ffffffffffffffff811115610fcc57600080fd5b610fd885828601610f13565b925050602083013567ffffffffffffffff811115610ff557600080fd5b61100185828601610f13565b9150509250929050565b6000815180845260005b8181101561103157602081850181015186830182015201611015565b506000602082860101526020601f19601f83011685010191505092915050565b84815260806020820152600061106a608083018661100b565b828103604084015261107c818661100b565b91505082606083015295945050505050565b80356001600160a01b03811681146110a557600080fd5b919050565b6000602082840312156110bc57600080fd5b6110c58261108e565b9392505050565b600080604083850312156110df57600080fd5b6110e88361108e565b9150602083013580151581146110fd57600080fd5b809150509250929050565b6000806040838503121561111b57600080fd5b6111248361108e565b946020939093013593505050565b6000604082018483526040602084015280845180835260608501915060208601925060005b81811015611175578351835260209384019390920191600101611157565b50909695505050505050565b634e487b7160e01b600052603260045260246000fd5b634e487b7160e01b600052601160045260246000fd5b808201808211156111c0576111c0611197565b92915050565b600181811c908216806111da57607f821691505b6020821081036111fa57634e487b7160e01b600052602260045260246000fd5b50919050565b601f82111561124a57806000526020600020601f840160051c810160208510156112275750805b601f840160051c820191505b818110156112475760008155600101611233565b50505b505050565b815167ffffffffffffffff81111561126957611269610efd565b61127d8161127784546111c6565b84611200565b6020601f8211600181146112b157600083156112995750848201515b600019600385901b1c1916600184901b178455611247565b600084815260208120601f198516915b828110156112e157878501518255602094850194600190920191016112c1565b50848210156112ff5786840151600019600387901b60f8161c191681555b50505050600190811b01905550565b6020815260006110c5602083018461100b565b80820281158282048414176111c0576111c0611197565b818103818111156111c0576111c061119756fea2646970667358221220a19a4f208f5a0cbf3803f7ee4348c5beb3e59416242929e7f2210fe7ec15b0ee64736f6c634300081b0033",
  "linkReferences": {},
  "deployedLinkReferences": {}
}