{
  "_format": "hh-sol-artifact-1",
  "contractName": "Voting",
  "sourceName": "contracts/Voting.sol",
  "abi": [
    {
      "inputs": [
        {
          "internalType": "uint256",
          "name": "_minimumVotingPower",
          "type": "uint256"
        },
        {
          "internalType": "bool",
          "name": "_canVotersAddCandidates",
          "type": "bool"
        }
      ],
      "stateMutability": "nonpayable",
      "type": "constructor"
    },
    {
      "inputs": [
        {
          "internalType": "address",
          "name": "voter",
          "type": "address"
        }
      ],
      "name": "AlreadyVoted",
      "type": "error"
    },
    {
      "inputs": [],
      "name": "CandidateAdditionClosed",
      "type": "error"
    },
    {
      "inputs": [],
      "name": "EmergencyStopActive",
      "type": "error"
    },
    {
      "inputs": [
        {
          "internalType": "address",
          "name": "voter",
          "type": "address"
        },
        {
          "internalType": "uint256",
          "name": "power",
          "type": "uint256"
        },
        {
          "internalType": "uint256",
          "name": "required",
          "type": "uint256"
        }
      ],
      "name": "InsufficientVotingPower",
      "type": "error"
    },
    {
      "inputs": [
        {
          "internalType": "uint256",
          "name": "candidateId",
          "type": "uint256"
        }
      ],
      "name": "InvalidCandidateId",
      "type": "error"
    },
    {
      "inputs": [],
      "name": "InvalidVotingDuration",
      "type": "error"
    },
    {
      "inputs": [
        {
          "internalType": "address",
          "name": "voter",
          "type": "address"
        }
      ],
      "name": "NoVoteToRevoke",
      "type": "error"
    },
    {
      "inputs": [],
      "name": "NotEnoughCandidates",
      "type": "error"
    },
    {
      "inputs": [],
      "name": "NotEnoughTimeElapsed",
      "type": "error"
    },
    {
      "inputs": [
        {
          "internalType": "address",
          "name": "caller",
          "type": "address"
        }
      ],
      "name": "OnlyAdmin",
      "type": "error"
    },
    {
      "inputs": [
        {
          "internalType": "address",
          "name": "voter",
          "type": "address"
        }
      ],
      "name": "VoterIsBlacklisted",
      "type": "error"
    },
    {
      "inputs": [],
      "name": "VotingAlreadyStarted",
      "type": "error"
    },
    {
      "inputs": [],
      "name": "VotingEnded",
      "type": "error"
    },
    {
      "inputs": [],
      "name": "VotingNotStarted",
      "type": "error"
    },
    {
      "anonymous": false,
      "inputs": [
        {
          "indexed": true,
          "internalType": "uint256",
          "name": "candidateId",
          "type": "uint256"
        },
        {
          "indexed": false,
          "internalType": "string",
          "name": "name",
          "type": "string"
        },
        {
          "indexed": true,
          "internalType": "address",
          "name": "addedBy",
          "type": "address"
        }
      ],
      "name": "CandidateAdded",
      "type": "event"
    },
    {
      "anonymous": false,
      "inputs": [
        {
          "indexed": false,
          "internalType": "bool",
          "name": "stopped",
          "type": "bool"
        }
      ],
      "name": "EmergencyStopToggled",
      "type": "event"
    },
    {
      "anonymous": false,
      "inputs": [
        {
          "indexed": true,
          "internalType": "address",
          "name": "voter",
          "type": "address"
        },
        {
          "indexed": true,
          "internalType": "uint256",
          "name": "candidateId",
          "type": "uint256"
        },
        {
          "indexed": false,
          "internalType": "uint256",
          "name": "votingPower",
          "type": "uint256"
        }
      ],
      "name": "VoteCasted",
      "type": "event"
    },
    {
      "anonymous": false,
      "inputs": [
        {
          "indexed": true,
          "internalType": "address",
          "name": "voter",
          "type": "address"
        },
        {
          "indexed": true,
          "internalType": "uint256",
          "name": "candidateId",
          "type": "uint256"
        }
      ],
      "name": "VoteRevoked",
      "type": "event"
    },
    {
      "anonymous": false,
      "inputs": [
        {
          "indexed": true,
          "internalType": "address",
          "name": "voter",
          "type": "address"
        },
        {
          "indexed": false,
          "internalType": "bool",
          "name": "blacklisted",
          "type": "bool"
        }
      ],
      "name": "VoterBlacklistUpdated",
      "type": "event"
    },
    {
      "anonymous": false,
      "inputs": [
        {
          "indexed": true,
          "internalType": "address",
          "name": "voter",
          "type": "address"
        },
        {
          "indexed": false,
          "internalType": "uint256",
          "name": "power",
          "type": "uint256"
        }
      ],
      "name": "VotingPowerAssigned",
      "type": "event"
    },
    {
      "anonymous": false,
      "inputs": [
        {
          "indexed": false,
          "internalType": "uint256",
          "name": "endTime",
          "type": "uint256"
        }
      ],
      "name": "VotingStarted",
      "type": "event"
    },
    {
      "inputs": [
        {
          "internalType": "string",
          "name": "_name",
          "type": "string"
        },
        {
          "internalType": "string",
          "name": "_description",
          "type": "string"
        }
      ],
      "name": "addCandidate",
      "outputs": [],
      "stateMutability": "nonpayable",
      "type": "function"
    },
    {
      "inputs": [],
      "name": "admin",
      "outputs": [
        {
          "internalType": "address",
          "name": "",
          "type": "address"
        }
      ],
      "stateMutability": "view",
      "type": "function"
    },
    {
      "inputs": [
        {
          "internalType": "address",
          "name": "_voter",
          "type": "address"
        },
        {
          "internalType": "uint256",
          "name": "_power",
          "type": "uint256"
        }
      ],
      "name": "assignVotingPower",
      "outputs": [],
      "stateMutability": "nonpayable",
      "type": "function"
    },
    {
      "inputs": [
        {
          "internalType": "address",
          "name": "",
          "type": "address"
        }
      ],
      "name": "blacklistedVoters",
      "outputs": [
        {
          "internalType": "bool",
          "name": "",
          "type": "bool"
        }
      ],
      "stateMutability": "view",
      "type": "function"
    },
    {
      "inputs": [],
      "name": "canVotersAddCandidates",
      "outputs": [
        {
          "internalType": "bool",
          "name": "",
          "type": "bool"
        }
      ],
      "stateMutability": "view",
      "type": "function"
    },
    {
      "inputs": [
        {
          "internalType": "uint256",
          "name": "",
          "type": "uint256"
        }
      ],
      "name": "candidates",
      "outputs": [
        {
          "internalType": "uint256",
          "name": "id",
          "type": "uint256"
        },
        {
          "internalType": "string",
          "name": "name",
          "type": "string"
        },
        {
          "internalType": "string",
          "name": "description",
          "type": "string"
        },
        {
          "internalType": "uint256",
          "name": "voteCount",
          "type": "uint256"
        }
      ],
      "stateMutability": "view",
      "type": "function"
    },
    {
      "inputs": [],
      "name": "emergencyStop",
      "outputs": [
        {
          "internalType": "bool",
          "name": "",
          "type": "bool"
        }
      ],
      "stateMutability": "view",
      "type": "function"
    },
    {
      "inputs": [
        {
          "internalType": "uint256",
          "name": "_candidateId",
          "type": "uint256"
        }
      ],
      "name": "getCandidate",
      "outputs": [
        {
          "internalType": "uint256",
          "name": "id",
          "type": "uint256"
        },
        {
          "internalType": "string",
          "name": "name",
          "type": "string"
        },
        {
          "internalType": "string",
          "name": "description",
          "type": "string"
        },
        {
          "internalType": "uint256",
          "name": "voteCount",
          "type": "uint256"
        }
      ],
      "stateMutability": "view",
      "type": "function"
    },
    {
      "inputs": [],
      "name": "getCandidatesCount",
      "outputs": [
        {
          "internalType": "uint256",
          "name": "",
          "type": "uint256"
        }
      ],
      "stateMutability": "view",
      "type": "function"
    },
    {
      "inputs": [],
      "name": "getRemainingTime",
      "outputs": [
        {
          "internalType": "uint256",
          "name": "",
          "type": "uint256"
        }
      ],
      "stateMutability": "view",
      "type": "function"
    },
    {
      "inputs": [
        {
          "internalType": "address",
          "name": "_voter",
          "type": "address"
        }
      ],
      "name": "getVoterInfo",
      "outputs": [
        {
          "internalType": "bool",
          "name": "hasVoted",
          "type": "bool"
        },
        {
          "internalType": "uint256",
          "name": "votedCandidateId",
          "type": "uint256"
        },
        {
          "internalType": "uint256",
          "name": "votingPower",
          "type": "uint256"
        },
        {
          "internalType": "bool",
          "name": "isBlacklisted",
          "type": "bool"
        }
      ],
      "stateMutability": "view",
      "type": "function"
    },
    {
      "inputs": [],
      "name": "getVotingResults",
      "outputs": [
        {
          "internalType": "uint256",
          "name": "totalVotesCast",
          "type": "uint256"
        },
        {
          "internalType": "uint256[]",
          "name": "voteCounts",
          "type": "uint256[]"
        }
      ],
      "stateMutability": "view",
      "type": "function"
    },
    {
      "inputs": [],
      "name": "minimumVotingPower",
      "outputs": [
        {
          "internalType": "uint256",
          "name": "",
          "type": "uint256"
        }
      ],
      "stateMutability": "view",
      "type": "function"
    },
    {
      "inputs": [],
      "name": "revokeVote",
      "outputs": [],
      "stateMutability": "nonpayable",
      "type": "function"
    },
    {
      "inputs": [
        {
          "internalType": "address",
          "name": "_voter",
          "type": "address"
        },
        {
          "internalType": "bool",
          "name": "_blacklisted",
          "type": "bool"
        }
      ],
      "name": "setVoterBlacklist",
      "outputs": [],
      "stateMutability": "nonpayable",
      "type": "function"
    },
    {
      "inputs": [
        {
          "internalType": "uint256",
          "name": "_durationInMinutes",
          "type": "uint256"
        }
      ],
      "name": "startVoting",
      "outputs": [],
      "stateMutability": "nonpayable",
      "type": "function"
    },
    {
      "inputs": [],
      "name": "toggleEmergencyStop",
      "outputs": [],
      "stateMutability": "nonpayable",
      "type": "function"
    },
    {
      "inputs": [],
      "name": "totalVotes",
      "outputs": [
        {
          "internalType": "uint256",
          "name": "",
          "type": "uint256"
        }
      ],
      "stateMutability": "view",
      "type": "function"
    },
    {
      "inputs": [
        {
          "internalType": "uint256",
          "name": "_candidateId",
          "type": "uint256"
        }
      ],
      "name": "vote",
      "outputs": [],
      "stateMutability": "nonpayable",
      "type": "function"
    },
    {
      "inputs": [
        {
          "internalType": "address",
          "name": "",
          "type": "address"
        }
      ],
      "name": "voters",
      "outputs": [
        {
          "internalType": "bool",
          "name": "hasVoted",
          "type": "bool"
        },
        {
          "internalType": "uint256",
          "name": "votedCandidateId",
          "type": "uint256"
        },
        {
          "internalType": "uint256",
          "name": "votingPower",
          "type": "uint256"
        }
      ],
      "stateMutability": "view",
      "type": "function"
    },
    {
      "inputs": [],
      "name": "votingEnd",
      "outputs": [
        {
          "internalType": "uint256",
          "name": "",
          "type": "uint256"
        }
      ],
      "stateMutability": "view",
      "type": "function"
    },
    {
      "inputs": [],
      "name": "votingStarted",
      "outputs": [
        {
          "internalType": "bool",
          "name": "",
          "type": "bool"
        }
      ],
      "stateMutability": "view",
      "type": "function"
    }
  ],
  "bytecode": "0x6080604052348015600f57600080fd5b5060405161147a38038061147a833981016040819052602c91608e565b81600003604c57604051632be0023160e11b815260040160405180910390fd5b600080546001600160a01b031916331790556005805460ff199081169091556006929092556007805491151591831691909117905560098054909116905560c1565b6000806040838503121560a057600080fd5b825191506020830151801515811460b657600080fd5b809150509250929050565b6113aa806100d06000396000f3fe608060405234801561001057600080fd5b50600436106101425760003560e01c806385a38635116100b8578063bb9aa28f1161007c578063bb9aa28f14610332578063c3a74f121461033a578063da650ec61461034d578063de862bc814610363578063efb98bcf14610370578063f851a4401461037857600080fd5b806385a386351461021757806394680078146102205780639d1efd15146102435780639ed1f25514610256578063a3ec138d146102e157600080fd5b806335b8e8201161010a57806335b8e820146101b75780633d2f5bda146101ca57806343c14b22146101dd5780634b7aac94146101e557806363a599a4146101ed57806383d948b71461020a57600080fd5b80630121b93f146101475780630d15fd771461015c578063120ea2021461017857806326541b56146101815780633477ee2e14610194575b600080fd5b61015a610155366004610f0d565b6103a3565b005b61016560085481565b6040519081526020015b60405180910390f35b61016560065481565b61015a61018f366004610fcb565b6105d3565b6101a76101a2366004610f0d565b61072f565b60405161016f949392919061107a565b6101a76101c5366004610f0d565b61087b565b61015a6101d8366004610f0d565b610a33565b61015a610b26565b61015a610c61565b6009546101fa9060ff1681565b604051901515815260200161016f565b6005546101fa9060ff1681565b61016560045481565b6101fa61022e3660046110d3565b60026020526000908152604090205460ff1681565b61015a6102513660046110f5565b610cdb565b6102bd6102643660046110d3565b6001600160a01b031660008181526001602081815260408084208151606081018352815460ff90811615158083529583015482860181905260029384015492850183905297875291909352932054919490929190911690565b6040805194151585526020850193909352918301521515606082015260800161016f565b6103156102ef3660046110d3565b600160208190526000918252604090912080549181015460029091015460ff9092169183565b60408051931515845260208401929092529082015260600161016f565b600354610165565b61015a610348366004611131565b610d68565b610355610e25565b60405161016f92919061115b565b6007546101fa9060ff1681565b610165610ed8565b60005461038b906001600160a01b031681565b6040516001600160a01b03909116815260200161016f565b60055460ff166103c657604051633fd0090160e11b815260040160405180910390fd5b60045442106103e857604051637a19ed0560e01b815260040160405180910390fd5b60095460ff161561040c57604051630eff07c160e21b815260040160405180910390fd5b3360009081526002602052604090205460ff161561044457604051633881545360e01b81523360048201526024015b60405180910390fd5b3360009081526001602052604090205460ff161561047757604051633512759d60e21b815233600482015260240161043b565b600354811061049c576040516306b5f7ef60e21b81526004810182905260240161043b565b6006543360009081526001602052604090206002015410156104f65733600081815260016020526040908190206002015460065491516309e915af60e01b815260048101939093526024830152604482015260640161043b565b336000908152600160208190526040909120805460ff191682178155908101829055600201546003805483908110610530576105306111aa565b9060005260206000209060040201600301600082825461055091906111d6565b909155505033600090815260016020526040812060020154600880549192909161057b9084906111d6565b909155505033600081815260016020526040908190206002015490518392917fcb87df07b1c304492bd875a5c8b98672eca500939412809ea229afef1d745188916105c891815260200190565b60405180910390a350565b60055460ff16156105f7576040516331c3320360e21b815260040160405180910390fd5b60075460ff1615801561061557506000546001600160a01b03163314155b15610635576040516302e286cf60e01b815233600482015260240161043b565b600380546040805160808101825282815260208101868152918101859052600060608201819052600184018555939093528251600483027fc2575a0e9e593c00f959f8c92f12db2869c3395a3b0502d05e2516446f71f85b8101918255915192939290917fc2575a0e9e593c00f959f8c92f12db2869c3395a3b0502d05e2516446f71f85c01906106c69082611278565b50604082015160028201906106db9082611278565b50606082015181600301555050336001600160a01b0316817ff119bb07245e20116d1c56128be14390dbc24c94fc13ee0a9bc023da18bab01d856040516107229190611337565b60405180910390a3505050565b6003818154811061073f57600080fd5b60009182526020909120600490910201805460018201805491935090610764906111ef565b80601f0160208091040260200160405190810160405280929190818152602001828054610790906111ef565b80156107dd5780601f106107b2576101008083540402835291602001916107dd565b820191906000526020600020905b8154815290600101906020018083116107c057829003601f168201915b5050505050908060020180546107f2906111ef565b80601f016020809104026020016040519081016040528092919081815260200182805461081e906111ef565b801561086b5780601f106108405761010080835404028352916020019161086b565b820191906000526020600020905b81548152906001019060200180831161084e57829003601f168201915b5050505050908060030154905084565b6000606080600060038054905085106108aa576040516306b5f7ef60e21b81526004810186905260240161043b565b6000600386815481106108bf576108bf6111aa565b9060005260206000209060040201604051806080016040529081600082015481526020016001820180546108f2906111ef565b80601f016020809104026020016040519081016040528092919081815260200182805461091e906111ef565b801561096b5780601f106109405761010080835404028352916020019161096b565b820191906000526020600020905b81548152906001019060200180831161094e57829003601f168201915b50505050508152602001600282018054610984906111ef565b80601f01602080910402602001604051908101604052809291908181526020018280546109b0906111ef565b80156109fd5780601f106109d2576101008083540402835291602001916109fd565b820191906000526020600020905b8154815290600101906020018083116109e057829003601f168201915b50505091835250506003919091015460209182015281519082015160408301516060909301519199909850919650945092505050565b6000546001600160a01b03163314610a60576040516302e286cf60e01b815233600482015260240161043b565b60055460ff1615610a84576040516301da8d1f60e51b815260040160405180910390fd5b60035460021115610aa857604051631217258560e01b815260040160405180910390fd5b80600003610ac957604051632be0023160e11b815260040160405180910390fd5b6005805460ff19166001179055610ae181603c61134a565b610aeb90426111d6565b60048190556040519081527fcf33babc496bb6dc2942b39cb7b75766bbbadf7da50d176ff8c513e9911402399060200160405180910390a150565b60055460ff16610b4957604051633fd0090160e11b815260040160405180910390fd5b6004544210610b6b57604051637a19ed0560e01b815260040160405180910390fd5b60095460ff1615610b8f57604051630eff07c160e21b815260040160405180910390fd5b336000908152600160205260409020805460ff16610bc257604051639d128f0360e01b815233600482015260240161043b565b600181015460028201546003805483908110610be057610be06111aa565b90600052602060002090600402016003016000828254610c009190611361565b9091555050600282015460088054600090610c1c908490611361565b9091555050815460ff19168255600060018301819055604051829133917fa7fda17277315b0673dca85a2745e7e213c2620017c8ad679e07262c1376ae309190a35050565b6000546001600160a01b03163314610c8e576040516302e286cf60e01b815233600482015260240161043b565b6009805460ff8082161560ff1990921682179092556040519116151581527f05b88d23d9a60b7924fccc370e1e0c1ccf49989e3b2968cafaf7db7fc13bd13f9060200160405180910390a1565b6000546001600160a01b03163314610d08576040516302e286cf60e01b815233600482015260240161043b565b6001600160a01b038216600081815260026020908152604091829020805460ff191685151590811790915591519182527f219d78dc0bfe15bade0b7d1f1115f1579185d6f2b85e8d05ee0e2e19bf80e01791015b60405180910390a25050565b6000546001600160a01b03163314610d95576040516302e286cf60e01b815233600482015260240161043b565b600654811015610dd5576006546040516309e915af60e01b81526001600160a01b038416600482015260248101839052604481019190915260640161043b565b6001600160a01b03821660008181526001602052604090819020600201839055517f9f8423a58aeaafe36a6e48f9d7da061cfb6597f98ea34a45c53818a0031e5bbb90610d5c9084815260200190565b60006060600060038054905067ffffffffffffffff811115610e4957610e49610f26565b604051908082528060200260200182016040528015610e72578160200160208202803683370190505b50905060005b600354811015610ecc5760038181548110610e9557610e956111aa565b906000526020600020906004020160030154828281518110610eb957610eb96111aa565b6020908102919091010152600101610e78565b50600854939092509050565b60055460009060ff16610eeb5750600090565b6004544210610efa5750600090565b42600454610f089190611361565b905090565b600060208284031215610f1f57600080fd5b5035919050565b634e487b7160e01b600052604160045260246000fd5b600082601f830112610f4d57600080fd5b813567ffffffffffffffff811115610f6757610f67610f26565b604051601f8201601f19908116603f0116810167ffffffffffffffff81118282101715610f9657610f96610f26565b604052818152838201602001851015610fae57600080fd5b816020850160208301376000918101602001919091529392505050565b60008060408385031215610fde57600080fd5b823567ffffffffffffffff811115610ff557600080fd5b61100185828601610f3c565b925050602083013567ffffffffffffffff81111561101e57600080fd5b61102a85828601610f3c565b9150509250929050565b6000815180845260005b8181101561105a5760208185018101518683018201520161103e565b506000602082860101526020601f19601f83011685010191505092915050565b8481526080602082015260006110936080830186611034565b82810360408401526110a58186611034565b91505082606083015295945050505050565b80356001600160a01b03811681146110ce57600080fd5b919050565b6000602082840312156110e557600080fd5b6110ee826110b7565b9392505050565b6000806040838503121561110857600080fd5b611111836110b7565b91506020830135801515811461112657600080fd5b809150509250929050565b6000806040838503121561114457600080fd5b61114d836110b7565b946020939093013593505050565b6000604082018483526040602084015280845180835260608501915060208601925060005b8181101561119e578351835260209384019390920191600101611180565b50909695505050505050565b634e487b7160e01b600052603260045260246000fd5b634e487b7160e01b600052601160045260246000fd5b808201808211156111e9576111e96111c0565b92915050565b600181811c9082168061120357607f821691505b60208210810361122357634e487b7160e01b600052602260045260246000fd5b50919050565b601f82111561127357806000526020600020601f840160051c810160208510156112505750805b601f840160051c820191505b81811015611270576000815560010161125c565b50505b505050565b815167ffffffffffffffff81111561129257611292610f26565b6112a6816112a084546111ef565b84611229565b6020601f8211600181146112da57600083156112c25750848201515b600019600385901b1c1916600184901b178455611270565b600084815260208120601f198516915b8281101561130a57878501518255602094850194600190920191016112ea565b50848210156113285786840151600019600387901b60f8161c191681555b50505050600190811b01905550565b6020815260006110ee6020830184611034565b80820281158282048414176111e9576111e96111c0565b818103818111156111e9576111e96111c056fea2646970667358221220e99e2f7367f31ecb9e8a0fe93103b272b4fb4559306def6d9f8fef6cd30fb9c164736f6c634300081b0033",
  "linkReferences": {},
  "deployedLinkReferences": {}
}